{
  "_format": "hh-sol-artifact-1",
  "contractName": "UceCoin",
  "sourceName": "contracts/UceCoin.sol",
  "abi": [
    {
      "inputs": [],
      "stateMutability": "nonpayable",
      "type": "constructor"
    },
    {
      "anonymous": false,
      "inputs": [
        {
          "indexed": true,
          "internalType": "address",
          "name": "_owner",
          "type": "address"
        },
        {
          "indexed": true,
          "internalType": "address",
          "name": "_spender",
          "type": "address"
        },
        {
          "indexed": false,
          "internalType": "uint256",
          "name": "_value",
          "type": "uint256"
        }
      ],
      "name": "Approval",
      "type": "event"
    },
    {
      "anonymous": false,
      "inputs": [
        {
          "indexed": false,
          "internalType": "uint256",
          "name": "volunteerActivitiesCount",
          "type": "uint256"
        },
        {
          "indexed": false,
          "internalType": "uint256",
          "name": "volunteerActivitiesAmount",
          "type": "uint256"
        },
        {
          "indexed": false,
          "internalType": "uint256",
          "name": "discountCount",
          "type": "uint256"
        },
        {
          "indexed": false,
          "internalType": "uint256",
          "name": "discountAmount",
          "type": "uint256"
        },
        {
          "indexed": false,
          "internalType": "uint256",
          "name": "UCEResourcesCount",
          "type": "uint256"
        },
        {
          "indexed": false,
          "internalType": "uint256",
          "name": "UCEResourcesAmount",
          "type": "uint256"
        }
      ],
      "name": "Estatistics",
      "type": "event"
    },
    {
      "anonymous": false,
      "inputs": [
        {
          "indexed": true,
          "internalType": "address",
          "name": "_from",
          "type": "address"
        },
        {
          "indexed": true,
          "internalType": "address",
          "name": "_to",
          "type": "address"
        }
      ],
      "name": "OwnershipTransferred",
      "type": "event"
    },
    {
      "anonymous": false,
      "inputs": [
        {
          "indexed": true,
          "internalType": "address",
          "name": "_from",
          "type": "address"
        },
        {
          "indexed": true,
          "internalType": "address",
          "name": "_to",
          "type": "address"
        },
        {
          "indexed": false,
          "internalType": "uint256",
          "name": "_value",
          "type": "uint256"
        }
      ],
      "name": "Transfer",
      "type": "event"
    },
    {
      "anonymous": false,
      "inputs": [
        {
          "indexed": false,
          "internalType": "address",
          "name": "from",
          "type": "address"
        },
        {
          "indexed": false,
          "internalType": "address",
          "name": "receiver",
          "type": "address"
        },
        {
          "indexed": false,
          "internalType": "uint256",
          "name": "amount",
          "type": "uint256"
        },
        {
          "indexed": false,
          "internalType": "string",
          "name": "description",
          "type": "string"
        },
        {
          "indexed": false,
          "internalType": "uint256",
          "name": "timestamp",
          "type": "uint256"
        },
        {
          "indexed": false,
          "internalType": "string",
          "name": "accountType",
          "type": "string"
        },
        {
          "indexed": false,
          "internalType": "string",
          "name": "receiverAccountType",
          "type": "string"
        }
      ],
      "name": "TransferOriginal",
      "type": "event"
    },
    {
      "inputs": [],
      "name": "_decimal",
      "outputs": [
        {
          "internalType": "uint8",
          "name": "",
          "type": "uint8"
        }
      ],
      "stateMutability": "view",
      "type": "function"
    },
    {
      "inputs": [],
      "name": "_minter",
      "outputs": [
        {
          "internalType": "address",
          "name": "",
          "type": "address"
        }
      ],
      "stateMutability": "view",
      "type": "function"
    },
    {
      "inputs": [],
      "name": "_name",
      "outputs": [
        {
          "internalType": "string",
          "name": "",
          "type": "string"
        }
      ],
      "stateMutability": "view",
      "type": "function"
    },
    {
      "inputs": [],
      "name": "_symbol",
      "outputs": [
        {
          "internalType": "string",
          "name": "",
          "type": "string"
        }
      ],
      "stateMutability": "view",
      "type": "function"
    },
    {
      "inputs": [],
      "name": "_totalSupply",
      "outputs": [
        {
          "internalType": "uint256",
          "name": "",
          "type": "uint256"
        }
      ],
      "stateMutability": "view",
      "type": "function"
    },
    {
      "inputs": [],
      "name": "acceptOwnership",
      "outputs": [],
      "stateMutability": "nonpayable",
      "type": "function"
    },
    {
      "inputs": [
        {
          "internalType": "address payable",
          "name": "receiver",
          "type": "address"
        },
        {
          "internalType": "uint256",
          "name": "amount",
          "type": "uint256"
        },
        {
          "internalType": "string",
          "name": "description",
          "type": "string"
        },
        {
          "internalType": "string",
          "name": "accountType",
          "type": "string"
        },
        {
          "internalType": "string",
          "name": "receiverAccountType",
          "type": "string"
        }
      ],
      "name": "addToBlockchain",
      "outputs": [],
      "stateMutability": "nonpayable",
      "type": "function"
    },
    {
      "inputs": [
        {
          "internalType": "address",
          "name": "adr",
          "type": "address"
        },
        {
          "internalType": "string",
          "name": "userName",
          "type": "string"
        },
        {
          "internalType": "string",
          "name": "email",
          "type": "string"
        },
        {
          "internalType": "string",
          "name": "password",
          "type": "string"
        },
        {
          "internalType": "string",
          "name": "accountType",
          "type": "string"
        }
      ],
      "name": "addUser",
      "outputs": [],
      "stateMutability": "nonpayable",
      "type": "function"
    },
    {
      "inputs": [
        {
          "internalType": "address",
          "name": "_owner",
          "type": "address"
        },
        {
          "internalType": "address",
          "name": "_spender",
          "type": "address"
        }
      ],
      "name": "allowance",
      "outputs": [
        {
          "internalType": "uint256",
          "name": "remaining",
          "type": "uint256"
        }
      ],
      "stateMutability": "view",
      "type": "function"
    },
    {
      "inputs": [
        {
          "internalType": "address",
          "name": "_spender",
          "type": "address"
        },
        {
          "internalType": "uint256",
          "name": "_value",
          "type": "uint256"
        }
      ],
      "name": "approve",
      "outputs": [
        {
          "internalType": "bool",
          "name": "success",
          "type": "bool"
        }
      ],
      "stateMutability": "nonpayable",
      "type": "function"
    },
    {
      "inputs": [
        {
          "internalType": "address",
          "name": "_owner",
          "type": "address"
        }
      ],
      "name": "balanceOf",
      "outputs": [
        {
          "internalType": "uint256",
          "name": "balance",
          "type": "uint256"
        }
      ],
      "stateMutability": "view",
      "type": "function"
    },
    {
      "inputs": [
        {
          "internalType": "address",
          "name": "target",
          "type": "address"
        },
        {
          "internalType": "uint256",
          "name": "amount",
          "type": "uint256"
        }
      ],
      "name": "confiscate",
      "outputs": [
        {
          "internalType": "bool",
          "name": "",
          "type": "bool"
        }
      ],
      "stateMutability": "nonpayable",
      "type": "function"
    },
    {
      "inputs": [],
      "name": "decimals",
      "outputs": [
        {
          "internalType": "uint8",
          "name": "",
          "type": "uint8"
        }
      ],
      "stateMutability": "view",
      "type": "function"
    },
    {
      "inputs": [],
      "name": "getAllTransactions",
      "outputs": [
        {
          "components": [
            {
              "internalType": "address",
              "name": "sender",
              "type": "address"
            },
            {
              "internalType": "address",
              "name": "receiver",
              "type": "address"
            },
            {
              "internalType": "uint256",
              "name": "amount",
              "type": "uint256"
            },
            {
              "internalType": "string",
              "name": "description",
              "type": "string"
            },
            {
              "internalType": "uint256",
              "name": "timestamp",
              "type": "uint256"
            },
            {
              "internalType": "string",
              "name": "accountType",
              "type": "string"
            },
            {
              "internalType": "string",
              "name": "receiverAccountType",
              "type": "string"
            }
          ],
          "internalType": "struct UceCoin.Transactions[]",
          "name": "",
          "type": "tuple[]"
        }
      ],
      "stateMutability": "view",
      "type": "function"
    },
    {
      "inputs": [],
      "name": "getAllUsers",
      "outputs": [
        {
          "components": [
            {
              "internalType": "address",
              "name": "addr",
              "type": "address"
            },
            {
              "internalType": "string",
              "name": "name",
              "type": "string"
            },
            {
              "internalType": "string",
              "name": "email",
              "type": "string"
            },
            {
              "internalType": "string",
              "name": "password",
              "type": "string"
            },
            {
              "internalType": "string",
              "name": "accountType",
              "type": "string"
            }
          ],
          "internalType": "struct UceCoin.Users[]",
          "name": "",
          "type": "tuple[]"
        }
      ],
      "stateMutability": "view",
      "type": "function"
    },
    {
      "inputs": [],
      "name": "getDiscountAmount",
      "outputs": [
        {
          "internalType": "uint256",
          "name": "",
          "type": "uint256"
        }
      ],
      "stateMutability": "view",
      "type": "function"
    },
    {
      "inputs": [],
      "name": "getDiscountCount",
      "outputs": [
        {
          "internalType": "uint256",
          "name": "",
          "type": "uint256"
        }
      ],
      "stateMutability": "view",
      "type": "function"
    },
    {
      "inputs": [],
      "name": "getTransactionCount",
      "outputs": [
        {
          "internalType": "uint256",
          "name": "",
          "type": "uint256"
        }
      ],
      "stateMutability": "view",
      "type": "function"
    },
    {
      "inputs": [],
      "name": "getUCEResourcesAmount",
      "outputs": [
        {
          "internalType": "uint256",
          "name": "",
          "type": "uint256"
        }
      ],
      "stateMutability": "view",
      "type": "function"
    },
    {
      "inputs": [],
      "name": "getUCEResourcesCount",
      "outputs": [
        {
          "internalType": "uint256",
          "name": "",
          "type": "uint256"
        }
      ],
      "stateMutability": "view",
      "type": "function"
    },
    {
      "inputs": [],
      "name": "getVolunteerActivitiesAmount",
      "outputs": [
        {
          "internalType": "uint256",
          "name": "",
          "type": "uint256"
        }
      ],
      "stateMutability": "view",
      "type": "function"
    },
    {
      "inputs": [],
      "name": "getVolunteerActivitiesCount",
      "outputs": [
        {
          "internalType": "uint256",
          "name": "",
          "type": "uint256"
        }
      ],
      "stateMutability": "view",
      "type": "function"
    },
    {
      "inputs": [
        {
          "internalType": "uint256",
          "name": "amount",
          "type": "uint256"
        }
      ],
      "name": "mint",
      "outputs": [
        {
          "internalType": "bool",
          "name": "",
          "type": "bool"
        }
      ],
      "stateMutability": "nonpayable",
      "type": "function"
    },
    {
      "inputs": [],
      "name": "name",
      "outputs": [
        {
          "internalType": "string",
          "name": "",
          "type": "string"
        }
      ],
      "stateMutability": "view",
      "type": "function"
    },
    {
      "inputs": [],
      "name": "newOwner",
      "outputs": [
        {
          "internalType": "address",
          "name": "",
          "type": "address"
        }
      ],
      "stateMutability": "view",
      "type": "function"
    },
    {
      "inputs": [],
      "name": "owner",
      "outputs": [
        {
          "internalType": "address",
          "name": "",
          "type": "address"
        }
      ],
      "stateMutability": "view",
      "type": "function"
    },
    {
      "inputs": [],
      "name": "symbol",
      "outputs": [
        {
          "internalType": "string",
          "name": "",
          "type": "string"
        }
      ],
      "stateMutability": "view",
      "type": "function"
    },
    {
      "inputs": [],
      "name": "totalSupply",
      "outputs": [
        {
          "internalType": "uint256",
          "name": "",
          "type": "uint256"
        }
      ],
      "stateMutability": "view",
      "type": "function"
    },
    {
      "inputs": [
        {
          "internalType": "address",
          "name": "_to",
          "type": "address"
        },
        {
          "internalType": "uint256",
          "name": "_value",
          "type": "uint256"
        }
      ],
      "name": "transfer",
      "outputs": [
        {
          "internalType": "bool",
          "name": "success",
          "type": "bool"
        }
      ],
      "stateMutability": "nonpayable",
      "type": "function"
    },
    {
      "inputs": [
        {
          "internalType": "address",
          "name": "_from",
          "type": "address"
        },
        {
          "internalType": "address",
          "name": "_to",
          "type": "address"
        },
        {
          "internalType": "uint256",
          "name": "_value",
          "type": "uint256"
        }
      ],
      "name": "transferFrom",
      "outputs": [
        {
          "internalType": "bool",
          "name": "success",
          "type": "bool"
        }
      ],
      "stateMutability": "nonpayable",
      "type": "function"
    },
    {
      "inputs": [
        {
          "internalType": "address",
          "name": "_to",
          "type": "address"
        }
      ],
      "name": "transferOwnership",
      "outputs": [],
      "stateMutability": "nonpayable",
      "type": "function"
    }
  ],
  "bytecode": "0x60806040523480156200001157600080fd5b50336000806101000a81548173ffffffffffffffffffffffffffffffffffffffff021916908373ffffffffffffffffffffffffffffffffffffffff1602179055506200014f736e6c01124f308fa9d9f08f49fd2f8030871958bc6040518060400160405280600d81526020017f50617a6d696e6f204b6576696e000000000000000000000000000000000000008152506040518060400160405280600981526020017f6b7270617a6d696e6f00000000000000000000000000000000000000000000008152506040518060400160405280600381526020017f31323300000000000000000000000000000000000000000000000000000000008152506040518060400160405280600881526020017f50726f6665736f720000000000000000000000000000000000000000000000008152506200094d60201b60201c565b6200024c73cc4ea77ca1a3216663256cadd248a6b20d60cdaf6040518060400160405280600f81526020017f43616e64656c656a6f204d6174656f00000000000000000000000000000000008152506040518060400160405280600b81526020017f6d6163616e64656c656a6f0000000000000000000000000000000000000000008152506040518060400160405280600381526020017f31323300000000000000000000000000000000000000000000000000000000008152506040518060400160405280600881526020017f50726f6665736f720000000000000000000000000000000000000000000000008152506200094d60201b60201c565b62000349732e7b4dd30177ebd3edd87ac6d37a04b534c3ec616040518060400160405280600a81526020017f506572657a204c756973000000000000000000000000000000000000000000008152506040518060400160405280600781526020017f6c75706572657a000000000000000000000000000000000000000000000000008152506040518060400160405280600381526020017f31323300000000000000000000000000000000000000000000000000000000008152506040518060400160405280600a81526020017f457374756469616e7465000000000000000000000000000000000000000000008152506200094d60201b60201c565b6200044673a5b8568cb9556cf5d5cc7a64b3ca418f7d2e755a6040518060400160405280600e81526020017f436f72646f626120416e647265730000000000000000000000000000000000008152506040518060400160405280600981526020017f616c636f72646f626100000000000000000000000000000000000000000000008152506040518060400160405280600381526020017f31323300000000000000000000000000000000000000000000000000000000008152506040518060400160405280600a81526020017f457374756469616e7465000000000000000000000000000000000000000000008152506200094d60201b60201c565b62000527737e7f8c67568a4d0cf6f281274825b108f1e42b8d60405180606001604052806021815260200162003bb3602191396040518060400160405280600981526020017f6e65676f6366696c6f00000000000000000000000000000000000000000000008152506040518060400160405280600381526020017f31323300000000000000000000000000000000000000000000000000000000008152506040518060400160405280600881526020017f536572766963696f0000000000000000000000000000000000000000000000008152506200094d60201b60201c565b6200062473d4f9fc10c066f181063bf230889d746ade70b3de6040518060400160405280600b81526020017f5469656e646120464943410000000000000000000000000000000000000000008152506040518060400160405280600a81526020017f7469656e646166696361000000000000000000000000000000000000000000008152506040518060400160405280600381526020017f31323300000000000000000000000000000000000000000000000000000000008152506040518060400160405280600881526020017f536572766963696f0000000000000000000000000000000000000000000000008152506200094d60201b60201c565b62000721734a29f922372293b87ed1d814c4c23cc173b848226040518060400160405280600381526020017f55434500000000000000000000000000000000000000000000000000000000008152506040518060400160405280600681526020017f75636d61696e00000000000000000000000000000000000000000000000000008152506040518060400160405280600381526020017f31323300000000000000000000000000000000000000000000000000000000008152506040518060400160405280600d81526020017f41646d696e6973747261646f72000000000000000000000000000000000000008152506200094d60201b60201c565b6040518060400160405280600381526020017f55434500000000000000000000000000000000000000000000000000000000008152506002908162000767919062000cf6565b506040518060400160405280600781526020017f556365436f696e0000000000000000000000000000000000000000000000000081525060039081620007ae919062000cf6565b506012600460006101000a81548160ff021916908360ff160217905550620007db62000a6560201b60201c565b600a620007e9919062000f6d565b6161a8620007f8919062000fbe565b600581905550734a29f922372293b87ed1d814c4c23cc173b84822600660006101000a81548173ffffffffffffffffffffffffffffffffffffffff021916908373ffffffffffffffffffffffffffffffffffffffff16021790555060055460076000600660009054906101000a900473ffffffffffffffffffffffffffffffffffffffff1673ffffffffffffffffffffffffffffffffffffffff1673ffffffffffffffffffffffffffffffffffffffff16815260200190815260200160002081905550600660009054906101000a900473ffffffffffffffffffffffffffffffffffffffff1673ffffffffffffffffffffffffffffffffffffffff16600073ffffffffffffffffffffffffffffffffffffffff167fddf252ad1be2c89b69c2b068fc378daa952ba7f163c4a11628f55a4df523b3ef6005546040516200093f91906200101a565b60405180910390a362001037565b600f6040518060a001604052808773ffffffffffffffffffffffffffffffffffffffff16815260200186815260200185815260200184815260200183815250908060018154018082558091505060019003906000526020600020906005020160009091909190915060008201518160000160006101000a81548173ffffffffffffffffffffffffffffffffffffffff021916908373ffffffffffffffffffffffffffffffffffffffff160217905550602082015181600101908162000a13919062000cf6565b50604082015181600201908162000a2b919062000cf6565b50606082015181600301908162000a43919062000cf6565b50608082015181600401908162000a5b919062000cf6565b5050505050505050565b6000600460009054906101000a900460ff16905090565b600081519050919050565b7f4e487b7100000000000000000000000000000000000000000000000000000000600052604160045260246000fd5b7f4e487b7100000000000000000000000000000000000000000000000000000000600052602260045260246000fd5b6000600282049050600182168062000afe57607f821691505b60208210810362000b145762000b1362000ab6565b5b50919050565b60008190508160005260206000209050919050565b60006020601f8301049050919050565b600082821b905092915050565b60006008830262000b7e7fffffffffffffffffffffffffffffffffffffffffffffffffffffffffffffffff8262000b3f565b62000b8a868362000b3f565b95508019841693508086168417925050509392505050565b6000819050919050565b6000819050919050565b600062000bd762000bd162000bcb8462000ba2565b62000bac565b62000ba2565b9050919050565b6000819050919050565b62000bf38362000bb6565b62000c0b62000c028262000bde565b84845462000b4c565b825550505050565b600090565b62000c2262000c13565b62000c2f81848462000be8565b505050565b5b8181101562000c575762000c4b60008262000c18565b60018101905062000c35565b5050565b601f82111562000ca65762000c708162000b1a565b62000c7b8462000b2f565b8101602085101562000c8b578190505b62000ca362000c9a8562000b2f565b83018262000c34565b50505b505050565b600082821c905092915050565b600062000ccb6000198460080262000cab565b1980831691505092915050565b600062000ce6838362000cb8565b9150826002028217905092915050565b62000d018262000a7c565b67ffffffffffffffff81111562000d1d5762000d1c62000a87565b5b62000d29825462000ae5565b62000d3682828562000c5b565b600060209050601f83116001811462000d6e576000841562000d59578287015190505b62000d65858262000cd8565b86555062000dd5565b601f19841662000d7e8662000b1a565b60005b8281101562000da85784890151825560018201915060208501945060208101905062000d81565b8683101562000dc8578489015162000dc4601f89168262000cb8565b8355505b6001600288020188555050505b505050505050565b7f4e487b7100000000000000000000000000000000000000000000000000000000600052601160045260246000fd5b60008160011c9050919050565b6000808291508390505b600185111562000e6b5780860481111562000e435762000e4262000ddd565b5b600185161562000e535780820291505b808102905062000e638562000e0c565b945062000e23565b94509492505050565b60008262000e86576001905062000f59565b8162000e96576000905062000f59565b816001811462000eaf576002811462000eba5762000ef0565b600191505062000f59565b60ff84111562000ecf5762000ece62000ddd565b5b8360020a91508482111562000ee95762000ee862000ddd565b5b5062000f59565b5060208310610133831016604e8410600b841016171562000f2a5782820a90508381111562000f245762000f2362000ddd565b5b62000f59565b62000f39848484600162000e19565b9250905081840481111562000f535762000f5262000ddd565b5b81810290505b9392505050565b600060ff82169050919050565b600062000f7a8262000ba2565b915062000f878362000f60565b925062000fb67fffffffffffffffffffffffffffffffffffffffffffffffffffffffffffffffff848462000e74565b905092915050565b600062000fcb8262000ba2565b915062000fd88362000ba2565b925082820262000fe88162000ba2565b9150828204841483151762001002576200100162000ddd565b5b5092915050565b620010148162000ba2565b82525050565b600060208201905062001031600083018462001009565b92915050565b612b6c80620010476000396000f3fe608060405234801561001057600080fd5b50600436106101e55760003560e01c806395d89b411161010f578063cd274a40116100a2578063e2842d7911610071578063e2842d791461057a578063e316c84f14610598578063f0544f71146105b6578063f2fde38b146105d4576101e5565b8063cd274a40146104f2578063d28d88521461050e578063d4ee1d901461052c578063dd62ed3e1461054a576101e5565b8063a9059cbb116100de578063a9059cbb1461046a578063b09f12661461049a578063be9863a3146104b8578063c6e9dea9146104d4576101e5565b806395d89b41146103e05780639e17e471146103fe578063a0712d681461041c578063a65cb5251461044c576101e5565b8063313ce56711610187578063578ec33f11610156578063578ec33f1461036a57806370a082311461038857806379ba5097146103b85780638da5cb5b146103c2576101e5565b8063313ce567146102e05780633eaaf86b146102fe57806347298f821461031c5780634b3a867b1461034c576101e5565b806323b872dd116101c357806323b872dd1461025657806327506f53146102865780632e7700f0146102a45780632f0e3120146102c2576101e5565b806306fdde03146101ea578063095ea7b31461020857806318160ddd14610238575b600080fd5b6101f26105f0565b6040516101ff9190611b66565b60405180910390f35b610222600480360381019061021d9190611c30565b610682565b60405161022f9190611c8b565b60405180910390f35b61024061068e565b60405161024d9190611cb5565b60405180910390f35b610270600480360381019061026b9190611cd0565b610698565b60405161027d9190611c8b565b60405180910390f35b61028e610802565b60405161029b9190611ef7565b60405180910390f35b6102ac610ad7565b6040516102b99190611cb5565b60405180910390f35b6102ca610ae1565b6040516102d79190611f35565b60405180910390f35b6102e8610af4565b6040516102f59190611f35565b60405180910390f35b610306610b0b565b6040516103139190611cb5565b60405180910390f35b61033660048036038101906103319190611c30565b610b11565b6040516103439190611c8b565b60405180910390f35b610354610ccf565b6040516103619190611cb5565b60405180910390f35b610372610cd9565b60405161037f9190611f5f565b60405180910390f35b6103a2600480360381019061039d9190611f7a565b610cff565b6040516103af9190611cb5565b60405180910390f35b6103c0610d48565b005b6103ca610ee4565b6040516103d79190611f5f565b60405180910390f35b6103e8610f08565b6040516103f59190611b66565b60405180910390f35b610406610f9a565b6040516104139190611cb5565b60405180910390f35b61043660048036038101906104319190611fa7565b610fa4565b6040516104439190611c8b565b60405180910390f35b61045461109a565b6040516104619190611cb5565b60405180910390f35b610484600480360381019061047f9190611c30565b6110a4565b6040516104919190611c8b565b60405180910390f35b6104a26110b9565b6040516104af9190611b66565b60405180910390f35b6104d260048036038101906104cd9190612147565b611147565b005b6104dc611553565b6040516104e99190611cb5565b60405180910390f35b61050c60048036038101906105079190612216565b61155d565b005b61051661166d565b6040516105239190611b66565b60405180910390f35b6105346116fb565b6040516105419190611f5f565b60405180910390f35b610564600480360381019061055f9190612301565b611721565b6040516105719190611cb5565b60405180910390f35b610582611729565b60405161058f919061248e565b60405180910390f35b6105a0611a26565b6040516105ad9190611cb5565b60405180910390f35b6105be611a30565b6040516105cb9190611cb5565b60405180910390f35b6105ee60048036038101906105e99190611f7a565b611a3a565b005b6060600380546105ff906124df565b80601f016020809104026020016040519081016040528092919081815260200182805461062b906124df565b80156106785780601f1061064d57610100808354040283529160200191610678565b820191906000526020600020905b81548152906001019060200180831161065b57829003601f168201915b5050505050905090565b60006001905092915050565b6000600554905090565b600081600760008673ffffffffffffffffffffffffffffffffffffffff1673ffffffffffffffffffffffffffffffffffffffff1681526020019081526020016000205410156106e657600080fd5b81600760008673ffffffffffffffffffffffffffffffffffffffff1673ffffffffffffffffffffffffffffffffffffffff1681526020019081526020016000206000828254610735919061253f565b9250508190555081600760008573ffffffffffffffffffffffffffffffffffffffff1673ffffffffffffffffffffffffffffffffffffffff168152602001908152602001600020600082825461078b9190612573565b925050819055508273ffffffffffffffffffffffffffffffffffffffff168473ffffffffffffffffffffffffffffffffffffffff167fddf252ad1be2c89b69c2b068fc378daa952ba7f163c4a11628f55a4df523b3ef846040516107ef9190611cb5565b60405180910390a3600190509392505050565b60606010805480602002602001604051908101604052809291908181526020016000905b82821015610ace57838290600052602060002090600702016040518060e00160405290816000820160009054906101000a900473ffffffffffffffffffffffffffffffffffffffff1673ffffffffffffffffffffffffffffffffffffffff1673ffffffffffffffffffffffffffffffffffffffff1681526020016001820160009054906101000a900473ffffffffffffffffffffffffffffffffffffffff1673ffffffffffffffffffffffffffffffffffffffff1673ffffffffffffffffffffffffffffffffffffffff1681526020016002820154815260200160038201805461090f906124df565b80601f016020809104026020016040519081016040528092919081815260200182805461093b906124df565b80156109885780601f1061095d57610100808354040283529160200191610988565b820191906000526020600020905b81548152906001019060200180831161096b57829003601f168201915b50505050508152602001600482015481526020016005820180546109ab906124df565b80601f01602080910402602001604051908101604052809291908181526020018280546109d7906124df565b8015610a245780601f106109f957610100808354040283529160200191610a24565b820191906000526020600020905b815481529060010190602001808311610a0757829003601f168201915b50505050508152602001600682018054610a3d906124df565b80601f0160208091040260200160405190810160405280929190818152602001828054610a69906124df565b8015610ab65780601f10610a8b57610100808354040283529160200191610ab6565b820191906000526020600020905b815481529060010190602001808311610a9957829003601f168201915b50505050508152505081526020019060010190610826565b50505050905090565b6000600854905090565b600460009054906101000a900460ff1681565b6000600460009054906101000a900460ff16905090565b60055481565b6000600660009054906101000a900473ffffffffffffffffffffffffffffffffffffffff1673ffffffffffffffffffffffffffffffffffffffff163373ffffffffffffffffffffffffffffffffffffffff1614610b6d57600080fd5b81600760008573ffffffffffffffffffffffffffffffffffffffff1673ffffffffffffffffffffffffffffffffffffffff1681526020019081526020016000205410610c275781600760008573ffffffffffffffffffffffffffffffffffffffff1673ffffffffffffffffffffffffffffffffffffffff1681526020019081526020016000206000828254610c02919061253f565b925050819055508160056000828254610c1b919061253f565b92505081905550610cc5565b600760008473ffffffffffffffffffffffffffffffffffffffff1673ffffffffffffffffffffffffffffffffffffffff1681526020019081526020016000205460056000828254610c78919061253f565b925050819055506000600760008573ffffffffffffffffffffffffffffffffffffffff1673ffffffffffffffffffffffffffffffffffffffff168152602001908152602001600020819055505b6001905092915050565b6000600e54905090565b600660009054906101000a900473ffffffffffffffffffffffffffffffffffffffff1681565b6000600760008373ffffffffffffffffffffffffffffffffffffffff1673ffffffffffffffffffffffffffffffffffffffff168152602001908152602001600020549050919050565b600160009054906101000a900473ffffffffffffffffffffffffffffffffffffffff1673ffffffffffffffffffffffffffffffffffffffff163373ffffffffffffffffffffffffffffffffffffffff1614610da257600080fd5b600160009054906101000a900473ffffffffffffffffffffffffffffffffffffffff1673ffffffffffffffffffffffffffffffffffffffff1660008054906101000a900473ffffffffffffffffffffffffffffffffffffffff1673ffffffffffffffffffffffffffffffffffffffff167f8be0079c531659141344cd1fd0a4f28419497f9722a3daafe3b4186f6b6457e060405160405180910390a3600160009054906101000a900473ffffffffffffffffffffffffffffffffffffffff166000806101000a81548173ffffffffffffffffffffffffffffffffffffffff021916908373ffffffffffffffffffffffffffffffffffffffff1602179055506000600160006101000a81548173ffffffffffffffffffffffffffffffffffffffff021916908373ffffffffffffffffffffffffffffffffffffffff160217905550565b60008054906101000a900473ffffffffffffffffffffffffffffffffffffffff1681565b606060028054610f17906124df565b80601f0160208091040260200160405190810160405280929190818152602001828054610f43906124df565b8015610f905780601f10610f6557610100808354040283529160200191610f90565b820191906000526020600020905b815481529060010190602001808311610f7357829003601f168201915b5050505050905090565b6000600c54905090565b6000600660009054906101000a900473ffffffffffffffffffffffffffffffffffffffff1673ffffffffffffffffffffffffffffffffffffffff163373ffffffffffffffffffffffffffffffffffffffff161461100057600080fd5b8160076000600660009054906101000a900473ffffffffffffffffffffffffffffffffffffffff1673ffffffffffffffffffffffffffffffffffffffff1673ffffffffffffffffffffffffffffffffffffffff16815260200190815260200160002060008282546110719190612573565b92505081905550816005600082825461108a9190612573565b9250508190555060019050919050565b6000600b54905090565b60006110b1338484610698565b905092915050565b600280546110c6906124df565b80601f01602080910402602001604051908101604052809291908181526020018280546110f2906124df565b801561113f5780601f106111145761010080835404028352916020019161113f565b820191906000526020600020905b81548152906001019060200180831161112257829003601f168201915b505050505081565b60016008600082825461115a9190612573565b9250508190555060106040518060e001604052803373ffffffffffffffffffffffffffffffffffffffff1681526020018773ffffffffffffffffffffffffffffffffffffffff16815260200186815260200185815260200142815260200184815260200183815250908060018154018082558091505060019003906000526020600020906007020160009091909190915060008201518160000160006101000a81548173ffffffffffffffffffffffffffffffffffffffff021916908373ffffffffffffffffffffffffffffffffffffffff16021790555060208201518160010160006101000a81548173ffffffffffffffffffffffffffffffffffffffff021916908373ffffffffffffffffffffffffffffffffffffffff1602179055506040820151816002015560608201518160030190816112989190612753565b506080820151816004015560a08201518160050190816112b89190612753565b5060c08201518160060190816112ce9190612753565b5050506040516020016112e09061287c565b604051602081830303815290604052805190602001208260405160200161130791906128c2565b604051602081830303815290604052805190602001200361135a576001600960008282546113359190612573565b9250508190555083600a600082825461134e9190612573565b925050819055506114bc565b60405160200161136990612925565b604051602081830303815290604052805190602001208260405160200161139091906128c2565b60405160208183030381529060405280519060200120036114bb576040516020016113ba90612986565b60405160208183030381529060405280519060200120816040516020016113e191906128c2565b6040516020818303038152906040528051906020012003611434576001600b600082825461140f9190612573565b9250508190555083600c60008282546114289190612573565b925050819055506114ba565b604051602001611443906129e7565b604051602081830303815290604052805190602001208160405160200161146a91906128c2565b60405160208183030381529060405280519060200120036114b9576001600d60008282546114989190612573565b9250508190555083600e60008282546114b19190612573565b925050819055505b5b5b5b7f019344c9bddfbdc6a3e4bd07f047720410fdbcad31fbb748d87cc93bc4c343c8338686864287876040516114f79796959493929190612a51565b60405180910390a17ff41dbe88ce84b3df80157b9cb21945b62c397fbd1933c96de8664b3d14b1daca600954600a54600b54600c54600d54600e5460405161154496959493929190612ad5565b60405180910390a15050505050565b6000600d54905090565b600f6040518060a001604052808773ffffffffffffffffffffffffffffffffffffffff16815260200186815260200185815260200184815260200183815250908060018154018082558091505060019003906000526020600020906005020160009091909190915060008201518160000160006101000a81548173ffffffffffffffffffffffffffffffffffffffff021916908373ffffffffffffffffffffffffffffffffffffffff16021790555060208201518160010190816116219190612753565b5060408201518160020190816116379190612753565b50606082015181600301908161164d9190612753565b5060808201518160040190816116639190612753565b5050505050505050565b6003805461167a906124df565b80601f01602080910402602001604051908101604052809291908181526020018280546116a6906124df565b80156116f35780601f106116c8576101008083540402835291602001916116f3565b820191906000526020600020905b8154815290600101906020018083116116d657829003601f168201915b505050505081565b600160009054906101000a900473ffffffffffffffffffffffffffffffffffffffff1681565b600092915050565b6060600f805480602002602001604051908101604052809291908181526020016000905b82821015611a1d57838290600052602060002090600502016040518060a00160405290816000820160009054906101000a900473ffffffffffffffffffffffffffffffffffffffff1673ffffffffffffffffffffffffffffffffffffffff1673ffffffffffffffffffffffffffffffffffffffff1681526020016001820180546117d6906124df565b80601f0160208091040260200160405190810160405280929190818152602001828054611802906124df565b801561184f5780601f106118245761010080835404028352916020019161184f565b820191906000526020600020905b81548152906001019060200180831161183257829003601f168201915b50505050508152602001600282018054611868906124df565b80601f0160208091040260200160405190810160405280929190818152602001828054611894906124df565b80156118e15780601f106118b6576101008083540402835291602001916118e1565b820191906000526020600020905b8154815290600101906020018083116118c457829003601f168201915b505050505081526020016003820180546118fa906124df565b80601f0160208091040260200160405190810160405280929190818152602001828054611926906124df565b80156119735780601f1061194857610100808354040283529160200191611973565b820191906000526020600020905b81548152906001019060200180831161195657829003601f168201915b5050505050815260200160048201805461198c906124df565b80601f01602080910402602001604051908101604052809291908181526020018280546119b8906124df565b8015611a055780601f106119da57610100808354040283529160200191611a05565b820191906000526020600020905b8154815290600101906020018083116119e857829003601f168201915b5050505050815250508152602001906001019061174d565b50505050905090565b6000600954905090565b6000600a54905090565b60008054906101000a900473ffffffffffffffffffffffffffffffffffffffff1673ffffffffffffffffffffffffffffffffffffffff163373ffffffffffffffffffffffffffffffffffffffff1614611a9257600080fd5b80600160006101000a81548173ffffffffffffffffffffffffffffffffffffffff021916908373ffffffffffffffffffffffffffffffffffffffff16021790555050565b600081519050919050565b600082825260208201905092915050565b60005b83811015611b10578082015181840152602081019050611af5565b60008484015250505050565b6000601f19601f8301169050919050565b6000611b3882611ad6565b611b428185611ae1565b9350611b52818560208601611af2565b611b5b81611b1c565b840191505092915050565b60006020820190508181036000830152611b808184611b2d565b905092915050565b6000604051905090565b600080fd5b600080fd5b600073ffffffffffffffffffffffffffffffffffffffff82169050919050565b6000611bc782611b9c565b9050919050565b611bd781611bbc565b8114611be257600080fd5b50565b600081359050611bf481611bce565b92915050565b6000819050919050565b611c0d81611bfa565b8114611c1857600080fd5b50565b600081359050611c2a81611c04565b92915050565b60008060408385031215611c4757611c46611b92565b5b6000611c5585828601611be5565b9250506020611c6685828601611c1b565b9150509250929050565b60008115159050919050565b611c8581611c70565b82525050565b6000602082019050611ca06000830184611c7c565b92915050565b611caf81611bfa565b82525050565b6000602082019050611cca6000830184611ca6565b92915050565b600080600060608486031215611ce957611ce8611b92565b5b6000611cf786828701611be5565b9350506020611d0886828701611be5565b9250506040611d1986828701611c1b565b9150509250925092565b600081519050919050565b600082825260208201905092915050565b6000819050602082019050919050565b611d5881611bbc565b82525050565b611d6781611bfa565b82525050565b600082825260208201905092915050565b6000611d8982611ad6565b611d938185611d6d565b9350611da3818560208601611af2565b611dac81611b1c565b840191505092915050565b600060e083016000830151611dcf6000860182611d4f565b506020830151611de26020860182611d4f565b506040830151611df56040860182611d5e565b5060608301518482036060860152611e0d8282611d7e565b9150506080830151611e226080860182611d5e565b5060a083015184820360a0860152611e3a8282611d7e565b91505060c083015184820360c0860152611e548282611d7e565b9150508091505092915050565b6000611e6d8383611db7565b905092915050565b6000602082019050919050565b6000611e8d82611d23565b611e978185611d2e565b935083602082028501611ea985611d3f565b8060005b85811015611ee55784840389528151611ec68582611e61565b9450611ed183611e75565b925060208a01995050600181019050611ead565b50829750879550505050505092915050565b60006020820190508181036000830152611f118184611e82565b905092915050565b600060ff82169050919050565b611f2f81611f19565b82525050565b6000602082019050611f4a6000830184611f26565b92915050565b611f5981611bbc565b82525050565b6000602082019050611f746000830184611f50565b92915050565b600060208284031215611f9057611f8f611b92565b5b6000611f9e84828501611be5565b91505092915050565b600060208284031215611fbd57611fbc611b92565b5b6000611fcb84828501611c1b565b91505092915050565b6000611fdf82611b9c565b9050919050565b611fef81611fd4565b8114611ffa57600080fd5b50565b60008135905061200c81611fe6565b92915050565b600080fd5b600080fd5b7f4e487b7100000000000000000000000000000000000000000000000000000000600052604160045260246000fd5b61205482611b1c565b810181811067ffffffffffffffff821117156120735761207261201c565b5b80604052505050565b6000612086611b88565b9050612092828261204b565b919050565b600067ffffffffffffffff8211156120b2576120b161201c565b5b6120bb82611b1c565b9050602081019050919050565b82818337600083830152505050565b60006120ea6120e584612097565b61207c565b90508281526020810184848401111561210657612105612017565b5b6121118482856120c8565b509392505050565b600082601f83011261212e5761212d612012565b5b813561213e8482602086016120d7565b91505092915050565b600080600080600060a0868803121561216357612162611b92565b5b600061217188828901611ffd565b955050602061218288828901611c1b565b945050604086013567ffffffffffffffff8111156121a3576121a2611b97565b5b6121af88828901612119565b935050606086013567ffffffffffffffff8111156121d0576121cf611b97565b5b6121dc88828901612119565b925050608086013567ffffffffffffffff8111156121fd576121fc611b97565b5b61220988828901612119565b9150509295509295909350565b600080600080600060a0868803121561223257612231611b92565b5b600061224088828901611be5565b955050602086013567ffffffffffffffff81111561226157612260611b97565b5b61226d88828901612119565b945050604086013567ffffffffffffffff81111561228e5761228d611b97565b5b61229a88828901612119565b935050606086013567ffffffffffffffff8111156122bb576122ba611b97565b5b6122c788828901612119565b925050608086013567ffffffffffffffff8111156122e8576122e7611b97565b5b6122f488828901612119565b9150509295509295909350565b6000806040838503121561231857612317611b92565b5b600061232685828601611be5565b925050602061233785828601611be5565b9150509250929050565b600081519050919050565b600082825260208201905092915050565b6000819050602082019050919050565b600060a0830160008301516123856000860182611d4f565b506020830151848203602086015261239d8282611d7e565b915050604083015184820360408601526123b78282611d7e565b915050606083015184820360608601526123d18282611d7e565b915050608083015184820360808601526123eb8282611d7e565b9150508091505092915050565b6000612404838361236d565b905092915050565b6000602082019050919050565b600061242482612341565b61242e818561234c565b9350836020820285016124408561235d565b8060005b8581101561247c578484038952815161245d85826123f8565b94506124688361240c565b925060208a01995050600181019050612444565b50829750879550505050505092915050565b600060208201905081810360008301526124a88184612419565b905092915050565b7f4e487b7100000000000000000000000000000000000000000000000000000000600052602260045260246000fd5b600060028204905060018216806124f757607f821691505b60208210810361250a576125096124b0565b5b50919050565b7f4e487b7100000000000000000000000000000000000000000000000000000000600052601160045260246000fd5b600061254a82611bfa565b915061255583611bfa565b925082820390508181111561256d5761256c612510565b5b92915050565b600061257e82611bfa565b915061258983611bfa565b92508282019050808211156125a1576125a0612510565b5b92915050565b60008190508160005260206000209050919050565b60006020601f8301049050919050565b600082821b905092915050565b6000600883026126097fffffffffffffffffffffffffffffffffffffffffffffffffffffffffffffffff826125cc565b61261386836125cc565b95508019841693508086168417925050509392505050565b6000819050919050565b600061265061264b61264684611bfa565b61262b565b611bfa565b9050919050565b6000819050919050565b61266a83612635565b61267e61267682612657565b8484546125d9565b825550505050565b600090565b612693612686565b61269e818484612661565b505050565b5b818110156126c2576126b760008261268b565b6001810190506126a4565b5050565b601f821115612707576126d8816125a7565b6126e1846125bc565b810160208510156126f0578190505b6127046126fc856125bc565b8301826126a3565b50505b505050565b600082821c905092915050565b600061272a6000198460080261270c565b1980831691505092915050565b60006127438383612719565b9150826002028217905092915050565b61275c82611ad6565b67ffffffffffffffff8111156127755761277461201c565b5b61277f82546124df565b61278a8282856126c6565b600060209050601f8311600181146127bd57600084156127ab578287015190505b6127b58582612737565b86555061281d565b601f1984166127cb866125a7565b60005b828110156127f3578489015182556001820191506020850194506020810190506127ce565b86831015612810578489015161280c601f891682612719565b8355505b6001600288020188555050505b505050505050565b600081905092915050565b7f50726f6665736f72000000000000000000000000000000000000000000000000600082015250565b6000612866600883612825565b915061287182612830565b600882019050919050565b600061288782612859565b9150819050919050565b600061289c82611ad6565b6128a68185612825565b93506128b6818560208601611af2565b80840191505092915050565b60006128ce8284612891565b915081905092915050565b7f457374756469616e746500000000000000000000000000000000000000000000600082015250565b600061290f600a83612825565b915061291a826128d9565b600a82019050919050565b600061293082612902565b9150819050919050565b7f536572766963696f000000000000000000000000000000000000000000000000600082015250565b6000612970600883612825565b915061297b8261293a565b600882019050919050565b600061299182612963565b9150819050919050565b7f41646d696e6973747261646f7200000000000000000000000000000000000000600082015250565b60006129d1600d83612825565b91506129dc8261299b565b600d82019050919050565b60006129f2826129c4565b9150819050919050565b6000612a17612a12612a0d84611b9c565b61262b565b611b9c565b9050919050565b6000612a29826129fc565b9050919050565b6000612a3b82612a1e565b9050919050565b612a4b81612a30565b82525050565b600060e082019050612a66600083018a611f50565b612a736020830189612a42565b612a806040830188611ca6565b8181036060830152612a928187611b2d565b9050612aa16080830186611ca6565b81810360a0830152612ab38185611b2d565b905081810360c0830152612ac78184611b2d565b905098975050505050505050565b600060c082019050612aea6000830189611ca6565b612af76020830188611ca6565b612b046040830187611ca6565b612b116060830186611ca6565b612b1e6080830185611ca6565b612b2b60a0830184611ca6565b97965050505050505056fea2646970667358221220f7a6a7b00ed971b40624cc250efe69d82dda28f6dd829ea0fdc0d5d5a8c453ba64736f6c6343000811003352657374617572616e74652046696c6f736f6669612027456c20766563696e6f27",
  "linkReferences": {},
  "deployedLinkReferences": {}
}